:10000000F3C517C643C615C6D0CA13C612C611C655
:1000100010C60FC60EC60DC60CC60BC60AC650418A
:10002000594C4F41445041594C4F41445041594C17
:100030004F41445041594C4F41445041594C4F411C
:10004000445041594C4F41445041594C4F41445008
:1000500041594C4F41445041594C4F4144504159F2
:100060004C4F41445041594C4F41445041594C4FE1
:1000700041445041594C4F41445041594C4F4144E7
:100080005041594C4F41445041594C4F41445041CB
:10009000594C4F41445041594C4F41445041594CA7
:1000A0004F41445041594C4F41445041594C4F41AC
:1000B000445041594C4F41445041594C4F41445098
:1000C00041594C4F41445041594C4F414450415982
:1000D0004C4F41445041594C4F41445041594C4F71
:1000E00041445041594C4F41445041594C4F414477
:1000F0005041594C4F41445041594C4F414450415B
:10010000594C4F41445041594C4F41445041594C36
:100110004F41445041594C4F41445041594C4F413B
:10012000445041594C4F41445041594C4F41445027
:1001300041594C4F41445041594C4F414450415911
:100140004C4F41445041594C4F41445041594C4F00
:1001500041445041594C4F41445041594C4F414406
:100160005041594C4F41445041594C4F41445041EA
:10017000594C4F41445041594C4F41445041594CC6
:100180004F41445041594C4F41445041594C4F41CB
:10019000445041594C4F41445041594C4F414450B7
:1001A00041594C4F41445041594C4F4144504159A1
:1001B0004C4F41445041594C4F41445041594C4F90
:1001C00041445041594C4F41445041594C4F414496
:1001D0005041594C4F41445041594C4F414450417A
:1001E000594C4F41445041594C4F41445041594C56
:1001F0004F41445041594C4F41445041594C4F415B
:10020000445041594C4F41445041594C4F41445046
:1002100041594C4F41445041594C4F414450415930
:100220004C4F41445041594C4F41445041594C4F1F
:1002300041445041594C4F41445041594C4F414425
:100240005041594C4F41445041594C4F4144504109
:10025000594C4F41445041594C4F41445041594CE5
:100260004F41445041594C4F41445041594C4F41EA
:10027000445041594C4F41445041594C4F414450D6
:1002800041594C4F41445041594C4F4144504159C0
:100290004C4F41445041594C4F41445041594C4FAF
:1002A00041445041594C4F41445041594C4F4144B5
:1002B0005041594C4F41445041594C4F4144504199
:1002C000594C4F41445041594C4F41445041594C75
:1002D0004F41445041594C4F41445041594C4F417A
:1002E000445041594C4F41445041594C4F41445066
:1002F00041594C4F41445041594C4F414450415950
:100300004C4F41445041594C4F41445041594C4F3E
:1003100041445041594C4F41445041594C4F414444
:100320005041594C4F41445041594C4F4144504128
:10033000594C4F41445041594C4F41445041594C04
:100340004F41445041594C4F41445041594C4F4109
:10035000445041594C4F41445041594C4F414450F5
:1003600041594C4F41445041594C4F4144504159DF
:100370004C4F41445041594C4F41445041594C4FCE
:1003800041445041594C4F41445041594C4F4144D4
:100390005041594C4F41445041594C4F41445041B8
:1003A000594C4F41445041594C4F41445041594C94
:1003B0004F41445041594C4F41445041594C4F4199
:1003C000445041594C4F41445041594C4F41445085
:1003D00041594C4F41445041594C4F41445041596F
:1003E0004C4F41445041594C4F41445041594C4F5E
:1003F00041445041594C4F41445041594C4F414464
:100400005041594C4F41445041594C4F4144504147
:10041000594C4F41445041594C4F41445041594C23
:100420004F41445041594C4F41445041594C4F4128
:10043000445041594C4F41445041594C4F41445014
:1004400041594C4F41445041594C4F4144504159FE
:100450004C4F41445041594C4F41445041594C4FED
:1004600041445041594C4F41445041594C4F4144F3
:100470005041594C4F41445041594C4F41445041D7
:10048000594C4F41445041594C4F41445041594CB3
:100490004F41445041594C4F41445041594C4F41B8
:1004A000445041594C4F41445041594C4F414450A4
:1004B00041594C4F41445041594C4F41445041598E
:1004C0004C4F41445041594C4F41445041594C4F7D
:1004D00041445041594C4F41445041594C4F414483
:1004E0005041594C4F41445041594C4F4144504167
:1004F000594C4F41445041594C4F41445041594C43
:100500004F41445041594C4F41445041594C4F4147
:10051000445041594C4F41445041594C4F41445033
:1005200041594C4F41445041594C4F41445041591D
:100530004C4F41445041594C4F41445041594C4F0C
:1005400041445041594C4F41445041594C4F414412
:100550005041594C4F41445041594C4F41445041F6
:10056000594C4F41445041594C4F41445041594CD2
:100570004F41445041594C4F41445041594C4F41D7
:10058000445041594C4F41445041594C4F414450C3
:1005900041594C4F41445041594C4F4144504159AD
:1005A0004C4F41445041594C4F41445041594C4F9C
:1005B00041445041594C4F41445041594C4F4144A2
:1005C0005041594C4F41445041594C4F4144504186
:1005D000594C4F41445041594C4F41445041594C62
:1005E0004F41445041594C4F41445041594C4F4167
:1005F000445041594C4F41445041594C4F41445053
:1006000041594C4F41445041594C4F41445041593C
:100610004C4F41445041594C4F41445041594C4F2B
:1006200041445041594C4F41445041594C4F414431
:100630005041594C4F41445041594C4F4144504115
:10064000594C4F41445041594C4F41445041594CF1
:100650004F41445041594C4F41445041594C4F41F6
:10066000445041594C4F41445041594C4F414450E2
:1006700041594C4F41445041594C4F4144504159CC
:100680004C4F41445041594C4F41445041594C4FBB
:1006900041445041594C4F41445041594C4F4144C1
:1006A0005041594C4F41445041594C4F41445041A5
:1006B000594C4F41445041594C4F41445041594C81
:1006C0004F41445041594C4F41445041594C4F4186
:1006D000445041594C4F41445041594C4F41445072
:1006E00041594C4F41445041594C4F41445041595C
:1006F0004C4F41445041594C4F41445041594C4F4B
:1007000041445041594C4F41445041594C4F414450
:100710005041594C4F41445041594C4F4144504134
:10072000594C4F41445041594C4F41445041594C10
:100730004F41445041594C4F41445041594C4F4115
:10074000445041594C4F41445041594C4F41445001
:1007500041594C4F41445041594C4F4144504159EB
:100760004C4F41445041594C4F41445041594C4FDA
:1007700041445041594C4F41445041594C4F4144E0
:100780005041594C4F41445041594C4F41445041C4
:10079000594C4F41445041594C4F41445041594CA0
:1007A0004F41445041594C4F41445041594C4F41A5
:1007B000445041594C4F41445041594C4F41445091
:1007C00041594C4F41445041594C4F41445041597B
:1007D0004C4F41445041594C4F41445041594C4F6A
:1007E00041445041594C4F41445041594C4F414470
:1007F0005041594C4F41445041594C4F4144504154
:10080000594C4F41445041594C4F41445041594C2F
:100810004F41445041594C4F41445041594C4F4134
:10082000445041594C4F41445041594C4F41445020
:1008300041594C4F41445041594C4F41445041590A
:100840004C4F41445041594C4F41445041594C4FF9
:1008500041445041594C4F41445041594C4F4144FF
:100860005041594C4F41445041594C4F41445041E3
:10087000594C4F41445041594C4F41445041594CBF
:100880004F41445041594C4F41445041594C4F41C4
:10089000445041594C4F41445041594C4F414450B0
:1008A00041594C4F41445041594C4F41445041599A
:1008B0004C4F41445041594C4F41445041594C4F89
:1008C00041445041594C4F41445041594C4F41448F
:1008D0005041594C4F41445041594C4F4144504173
:1008E000594C4F41445041594C4F41445041594C4F
:1008F0004F41445041594C4F41445041594C4F4154
:10090000445041594C4F41445041594C4F4144503F
:1009100041594C4F41445041594C4F414450415929
:100920004C4F41445041594C4F41445041594C4F18
:1009300041445041594C4F41445041594C4F41441E
:100940005041594C4F41445041594C4F4144504102
:10095000594C4F41445041594C4F41445041594CDE
:100960004F41445041594C4F41445041594C4F41E3
:10097000445041594C4F41445041594C4F414450CF
:1009800041594C4F41445041594C4F4144504159B9
:100990004C4F41445041594C4F41445041594C4FA8
:1009A00041445041594C4F41445041594C4F4144AE
:1009B0005041594C4F41445041594C4F4144504192
:1009C000594C4F41445041594C4F41445041594C6E
:1009D0004F41445041594C4F41445041594C4F4173
:1009E000445041594C4F41445041594C4F4144505F
:1009F00041594C4F41445041594C4F414450415949
:100A00004C4F41445041594C4F41445041594C4F37
:100A100041445041594C4F41445041594C4F41443D
:100A20005041594C4F41445041594C4F4144504121
:100A3000594C4F41445041594C4F41445041594CFD
:100A40004F41445041594C4F41445041594C4F4102
:100A5000445041594C4F41445041594C4F414450EE
:100A600041594C4F41445041594C4F4144504159D8
:100A70004C4F41445041594C4F41445041594C4FC7
:100A800041445041594C4F41445041594C4F4144CD
:100A90005041594C4F41445041594C4F41445041B1
:100AA000594C4F41445041594C4F41445041594C8D
:100AB0004F41445041594C4F41445041594C4F4192
:100AC000445041594C4F41445041594C4F4144507E
:100AD00041594C4F41445041594C4F414450415968
:100AE0004C4F41445041594C4F41445041594C4F57
:100AF00041445041594C4F41445041594C4F41445D
:100B00005041594C4F41445041594C4F4144504140
:100B1000594C4F41445041594C4F414400434F4E72
:100B20004658580005010906A101850105079503EE
:100B3000750825E7190029E78100C005010902A110
:100B40000185020901A100050919012903150025E4
:100B50000195037501810295017505810305010960
:100B600030093109381581257F750895038106C044
:100B7000C0090222000101008032090400000103C3
:100B8000010100092101010001224D000705810337
:100B900008000A1201100100000008C016DB27003F
:100BA0000101020001100344006900670069004B65
:100BB00000650079001C0364006900670069007328
:100BC00000740075006D0070002E0063006F006DF2
:100BD00000040309040102040810200101010101BD
:100BE0000100380037002B0911241FBECFE5D2E0E9
:100BF000DEBFCDBF10E0A0E6B0E0E6E6F7E102C060
:100C000005900D92A236B107D9F720E0A2E6B0E038
:100C100001C01D92AD3AB207E1F71BE0C8EEDBE080
:100C200003C02297FE0199D5C63ED107D1F78FD5D3
:100C300098C5E6C9A82FB92F80E090E041E050EABE
:100C4000609530E009C02D9182279795879510F027
:100C500084279527305EC8F36F5FA8F30895EADF15
:100C60008D939D930895A6E088279927AA9569F00A
:100C70000197E1F3B399FCCFB39BFECF81E09927B5
:100C8000A6B3019611F0A871D9F70895CF93CFB705
:100C9000CF93C395B39BE9F7B39B0BC0B39B09C03C
:100CA000B39B07C0B39B05C0B39B03C0B39B01C0FC
:100CB000D5C00F92DF93C0919000DD27C956DF4F5A
:100CC000012EB39B03C0DF910F90E6CF2F930F93BC
:100CD0001F934F932FEF4F6F06B303FB20F95F93E2
:100CE0003F9350E03BE065C016B30126502953FD09
:100CF000C89556B3012703FB25F92F7306B3B1F04E
:100D00005027102713FB26F906B22230F0F000C05E
:100D100016B3012703FB27F90126502906B2243018
:100D2000E8F54F77206816B30000F6CF50274F7DC7
:100D3000206206B2102F000000C006B30026502922
:100D4000102713FB26F906B2E2CF4F7B06B32064CF
:100D500000C0DACF01265029187106B269F14E7F22
:100D60002160012F16B328C0002650294D7F06B2FE
:100D70002260102F29C0012650294B7F06B2246023
:100D8000012F2DC016B301265029477F286000008F
:100D900006B22EC04F7E06B3206130C0422706B394
:100DA000499300265029102706B24FEF13FB20F974
:100DB000297F16B379F2187159F10126502906B22C
:100DC000012703FB21F9237F06B371F20026502986
:100DD0003150D0F006B2102713FB22F9277E16B34C
:100DE00051F201265029012703FB06B223F92F7C7B
:100DF00049F2000006B3102713FB24F900265029FE
:100E000006B22F7939F270CF10E21ABF002719C04D
:100E10003B503195C31BD04010E21ABF0881033C00
:100E200009F10B34F9F020918E001981110F121382
:100E3000EDCF4A81441F093651F10D3211F0013EC8
:100E400029F7009395003F915F914F911F910F916A
:100E50002F91DF910F90CAB7C5FD1BCFCF91CFBFA8
:100E6000CF91189520919500222369F3109193005A
:100E7000112379F534307AF13093930020938F0069
:100E8000109190003BE0311B3093900024C0009102
:100E900093000130F4F40AE54F7049F43091610099
:100EA00034FD1AC000936100C7E7D0E019C030914B
:100EB000820034FD11C000938200C3E8D0E010C06E
:100EC000052710E000C021C0052710E0C89508BB29
:100ED00014C03AE501C032ED032EC0E0D0E032E0AC
:100EE00017B31861C39A08B317BB58E120E84FEF56
:100EF00020FF052708BB279517951C3F28F7000002
:100F00004552B0F720FF0527279508BB17951C3FD2
:100F1000B8F629913A9561F7077E10919400110F68
:100F200008BBC250D04011F010938E0010E21ABFDF
:100F3000086017B3177E402F477E54E05A95F1F7AB
:100F400008BB17BB48BB7FCF8F929F92AF92BF92D7
:100F5000CF92DF92EF92FF92CF93DF9300D000D039
:100F6000CDB7DEB76B017C0167D34B015C011C146C
:100F70001D041E041F049CF45FD3C61AD70AE80A96
:100F8000F90AC80CD91CEA1CFB1C69837A838B8381
:100F90009C83DDD169817A818B819C81E6CF0F9022
:100FA0000F900F900F90DF91CF91FF90EF90DF9017
:100FB000CF90BF90AF909F908F9008950F931F9305
:100FC000CF93DF9300D01F92CDB7DEB78C01809115
:100FD000820084FD0EC02B834A836983B8D180E9E7
:100FE00090E50197F1F700C0000069814A812B81EB
:100FF000EECF81E0F801808361834283238364E044
:10100000C8010F900F900F90DF91CF911F910F911A
:101010007AC1FC0187E690E0909392008093910062
:1010200080818076803231F481818A3019F4838125
:1010300080936B0080E00895CF92DF92EF92FF9251
:1010400081E090E09093640080936300EEE1F0E033
:10105000E491E0936200EDE1FBE08591949190933F
:10106000660080936500EFE1FBE0C590D590E590C8
:10107000F49061E080E005D361E081E002D361E0BB
:1010800081E036D361E080E033D38091660088232D
:1010900019F0C701B60158DF20E040E060E087E6C4
:1010A00090E0FF90EF90DF90CF9088CFEF92FF928B
:1010B0000F931F93CF93DF9300D000D01F92CDB733
:1010C000DEB745D1609162006E3889F4E09163002B
:1010D000F0916400E25EFF4F659175918591949166
:1010E00033DF8091630090916400049675C0613F86
:1010F00050F12DD119821A821B8210E0812F90E0CD
:101100002091620030E0205F3109E0916300F091AE
:101110006400E80FF91F821793076CF4E25EFF4F3B
:10112000E491A1E0B0E0AC0FBD1FA80FB91FEC9394
:101130000ED11F5FE3CFF0936400E09363002B8137
:101140004A81698150C081E7860F833008F049C029
:10115000E0916300F09164006F3839F4E25EFF4F74
:10116000E49010E000E0F12C17C0603979F4CF0171
:10117000E25EFF4FF4900196FC01E25EFF4F0491A6
:10118000909364008093630010E005C0E25EFF4F1F
:10119000149100E0F12CE12C8091820084FD08C0C4
:1011A000D6D080E990E50197F1F700C00000F4CFB8
:1011B000CE01019625E0FC0111922A95E9F722E083
:1011C0002983EA82FB820C831D8365E09CD0809199
:1011D0006300909164000196909364008093630093
:1011E0000BC020E040E087E690E0E8DE20E040E051
:1011F00060E087E690E0E2DE809163009091640019
:10120000FC01E25EFF4FE491E0936200E11112C045
:101210009ED081E090E09093640080936300EEE1C3
:10122000F0E0E491E093620092D08091650081113A
:1012300006C0FFCF019690936400809363000F90E7
:101240000F900F900F900F90DF91CF911F910F9102
:10125000FF90EF900895F894BB9A27EA86E99CE006
:10126000215080409040E1F700C00000BB9883D13E
:1012700078941092670010926800109269001092A2
:101280006A0064E087E690E03EC0DF92EF92FF9252
:101290000F931F93CF93DF93C8E0D0E0F12C80E849
:1012A000E82EDF2CDE0CD1BEDEDC8C01043389E0BD
:1012B00018070CF4FD2CE694219799F78FEF8F0D0A
:1012C00081BFCF2DD0E0219681B790E0C817D90714
:1012D0008CF0C9DC8453994097FF03C091958195A8
:1012E00091098017910714F4F1B68C0181B78F5FD3
:1012F00081BFEACFF1BEDF91CF911F910F91FF9097
:10130000EF90DF900895CF93C62F2091820024FFA5
:1013100007C02091830038E823272093830003C06F
:101320002AE520938200DC01E4E8F0E09C2F9E0F88
:101330008D918193892F8E1B1816D4F36C2F84E81E
:1013400090E08DDCCC5FC0938200CF910895CF9365
:10135000DF9380919300835087FDA8C09091900007
:1013600020918F002D3209F09FC0883009F09CC079
:10137000CCE0D0E0C91BD109C956DF4F83EC809384
:1013800077008AE58093610010926D0088818076F5
:1013900019F0CE013EDE7FC09A81109280008981D3
:1013A000811106C01092810020E830E082E06FC019
:1013B000853019F49093940067C0863009F04EC0D0
:1013C0008B81813041F483E99BE09093920080937C
:1013D000910082E13FC0823041F481E79BE090932D
:1013E00092008093910082E235C08330F1F4911134
:1013F00008C081ED9BE0909392008093910084E07F
:1014000029C0913041F485EB9BE09093920080934A
:1014100091008CE11FC09230E1F485EA9BE090934B
:1014200092008093910080E115C0813241F483E8FD
:101430009BE0909392008093910089E00BC08232F0
:1014400041F484E29BE090939200809391008DE4BC
:1014500001C080E090E490936D001DC0883069F079
:10146000893019F4909396000FC08A3049F08B3080
:1014700059F48BE48093830007C026E930E002C072
:1014800020E830E081E003C020E830E080E03093E5
:101490009200209391009F81911104C09E81981722
:1014A00008F4892F8093600010929300809161006E
:1014B00084FF46C0809160008F3F09F441C0C82F6F
:1014C000893008F0C8E08C1B809360008091770021
:1014D00098E8892780937700CC2331F120919100FF
:1014E0003091920080916D0086FF0BC0A8E7B0E0BC
:1014F000F9018C2F8A0F94919D9331968A13FBCF1B
:1015000009C0D901E8E7F0E08C2F8E0F9D919193EF
:101510008E13FCCF8FEF8C0F90E00196820F931FFC
:1015200090939200809391006C2F88E790E097DB76
:10153000CC5FCC3019F08FEF80936000C0936100D6
:1015400084E196B3987131F48150D9F710929400E8
:1015500010928E00C1E08111C0E080916C008C1768
:1015600039F0C11103C0F89490DE7894C0936C00F8
:10157000DF91CF910895AC9A8BB780628BBF8BE4DB
:10158000809383008AE580938200089583B7887FE3
:1015900083BF8AB58C7F81608ABD83B7877F83BF15
:1015A00083B7887F836083BF089578941F920F92DA
:1015B0000FB60F9211242F933F938F939F93AF9366
:1015C000BF9380916F0090917000A0917100B091D5
:1015D000720030916E002CE7230F2D3728F02FEF8B
:1015E000230F0196A11DB11D20936E0080936F0003
:1015F00090937000A0937100B0937200809173007B
:1016000090917400A0917500B09176000196A11D93
:10161000B11D8093730090937400A0937500B093F4
:101620007600BF91AF919F918F913F912F910F9035
:101630000FBE0F901F9018952FB7F89460916F0010
:101640007091700080917100909172002FBF089589
:10165000789480B7806880BF80B7806480BF8CB585
:1016600080648CBD8FEF8DBD80B7807F876080BF29
:1016700089B7846089BF8ADF86B1876086B9379A67
:101680000895CF93DF9390E0FC01EB52F44F249147
:10169000FC01E552F44F8491882339F190E0FC017C
:1016A000ED51F44FA491B0E0FC01EF51F44F84915F
:1016B000611106C09FB7F8948C912095822313C0C6
:1016C000623069F4C82FD0E09FB7F8948C91322F24
:1016D000309583238C938881822B888305C09FB7A4
:1016E000F8948C91822B8C939FBFDF91CF910895BA
:1016F000A82FB0E0FD01EB52F44F9491FD01E552AB
:10170000F44FE491EE2311F1811103C08AB58F7378
:1017100004C0813021F48AB58F7C8ABD05C0843035
:1017200019F48CB58F7C8CBDF0E0EF51F44FA4918F
:10173000B0E02FB7611105C0F8948C919095892382
:1017400003C0F8948C91892B8C932FBF089580DF70
:1017500073DCACDCFECFEE0FFF1F0590F491E02DA3
:061760000994F894FFCF8C
:02176600FF5A28
:00000001FF
